:100000002EC100005DC100005BC1000059C10000AD
:1000100057C1000055C1000053C1000051C100008C
:100020004FC100004DC100004BC1000049C100009C
:1000300047C1000045C1000043C1000041C10000AC
:100040003FC100003DC100003BC1000039C10000BC
:1000500037C1000035C1000033C100000C94170BFC
:100060002FC10000D0C30000A5C3000029C10000BB
:1000700027C1000025C1000023C1000021C10000EC
:100080001FC100001DC100001BC1000019C10000FC
:1000900017C1000015C1000013C1000011C100000C
:1000A0000FC100000DC100000BC1000009C100001C
:1000B00007C1000005C1000003C1000001C100002C
:1000C000FFC00000FDC00000FBC00000F9C0000040
:1000D000F7C00000F5C00000F3C00000F1C0000050
:1000E000EFC000001D06F004DC04FD04F704F40476
:1000F0009C04C804800D850D8A0D940D9E0D170E6D
:10010000A80DB00DB80DC20DCC0DD60DE50DEF0D3F
:10011000170EF90D030E0D0EE708EA08D908DD08E1
:10012000E3082109EE08F208F808FC0800090609AE
:100130000A090E092109140918091C0900002100E7
:10014000240027002A002D003000330001010000A8
:10015000040107010A0100002200250028002B00ED
:100160002E003100340002010000050108010B01DE
:10017000000020002300260029002C002F00320060
:100180000001000003010601090105050505070539
:1001900008080808020202020A0A08080404040403
:1001A000010101010101010103030303030303032F
:1001B000040707070C0C0C0C0C0C0C0C02020202BE
:1001C00006060606060606060B0B0B0B0B0B0B0BA7
:1001D0000102102020080810204010204080020159
:1001E000020108040201010204081020408080403E
:1001F000201008040201800402018040201008043D
:1002000002010804020101020408102040800102DA
:1002100004081020408000000A0B02090C0D0E0893
:1002200007030401000000000000000000000000BF
:1002300000000000000000000000000000000000BE
:10024000000012111000000000000000000000007B
:100250000000000000000000000000008D0F1124CD
:100260001FBECFEFD1E2DEBFCDBF00E00CBF12E07A
:10027000A0E0B2E0EEEFFBE200E00BBF02C00790AF
:100280000D92A239B107D9F723E0A2E9B2E001C08B
:100290001D92AC37B207E1F711E0CFE2D1E000E008
:1002A00006C021970109802FFE010E941B10CE324B
:1002B000D10780E00807A9F70E94610B0C94FD1597
:1002C0009FCECF92DF92EF92FF920F931F93CF9327
:1002D000DF936C017A018B01C0E0D0E0CE15DF0521
:1002E00089F0D8016D918D01D601ED91FC910190BD
:1002F000F081E02DC6011995892B11F47E0102C011
:100300002196ECCFC701DF91CF911F910F91FF9004
:10031000EF90DF90CF900895FC01918D828D98171A
:1003200061F0828DDF01A80FB11D5D968C91928DD9
:100330009F5F9F73928F90E008958FEF9FEF0895D6
:10034000FC01918D828D981731F0828DE80FF11D9F
:10035000858D90E008958FEF9FEF0895FC01918DBA
:10036000228D892F90E0805C9F4F821B91098F73B3
:10037000992708958EE992E0F1DF21E0892B09F4B5
:1003800020E0822F0895FC01848DDF01A80FB11DAC
:10039000A35ABF4F2C91848D90E001968F739927BB
:1003A000848FA689B7892C93A089B1898C918064A8
:1003B0008C93938D848D981306C00288F389E02D69
:1003C00080818F7D80830895EF92FF920F931F931A
:1003D000CF93DF93EC0181E0888F9B8D8C8D9813F8
:1003E00005C0E889F989808185FD23C0F62E0B8D33
:1003F00010E00F5F1F4F0F731127E02E8C8DE81256
:100400000BC00FB607FCFACFE889F989808185FF18
:10041000F5CFCE01B8DFF2CF8B8DFE01E80FF11DD5
:10042000E35AFF4FF0820B8FEA89FB89808180625B
:1004300007C0EE89FF896083E889F989808180643B
:10044000808381E090E0DF91CF911F910F91FF9029
:10045000EF900895CF93DF93EC01888D8823C1F04E
:10046000EA89FB89808185FD05C0A889B9898C91BD
:1004700086FD0EC00FB607FCF5CF808185FFF2CF59
:10048000A889B9898C9185FFEDCFCE017CDFE8CFBB
:10049000DF91CF91089580E090E0892B19F06ADF19
:1004A000811125C080E090E0892B41F080E090E050
:1004B000892B21F00E94000081111CC080E090E097
:1004C000892B41F080E090E0892B21F00E94000010
:1004D000811113C080E090E0892BA1F080E090E0D2
:1004E000892B81F00E94000081110AC008950E94AA
:1004F0000000D8CF0E940000E1CF0E940000EACFA8
:100500000C9400000895FC01EA59FF4F20813181CD
:10051000620F731F6536710538F42E5F3F4F71838C
:100520006083820F931F089580E090E008958130EA
:1005300051F0D8F0823061F0833079F46FE672E1E7
:1005400083E89AE308956DEC7CEC8CEC9DE30895D0
:100550006AE077ED83E29CE308958450E8DF27E1C9
:1005600037EB41ED58E30C94FF1460E070E080E855
:100570009FE30895CF93DF93EC0188819981DC019B
:10058000ED91FC910190F081E02D19952A813B813C
:10059000820F931F9B838A83DF91CF910895AF923F
:1005A000BF92CF92DF92EF92FF920F931F93CF9360
:1005B000DF93FC01C381D481209751F02C813D81D0
:1005C000AB01420F531FEA81FB81E417F50708F5E1
:1005D000FC01E580F6805B016E157F0508F457018C
:1005E0006B018C01C50106960E943D110097B9F080
:1005F000FC01B382A282D183C083F80194838383F8
:10060000EE0CFF1CF682E582FC01D582C4820696C0
:1006100006C0C90106965D834C838C0F9D1FDF9138
:10062000CF911F910F91FF90EF90DF90CF90BF90EF
:10063000AF900895CF93DF93EC0188819981611584
:10064000710589F0FB0101900020E9F73197AF01B6
:10065000461B570BDC01ED91FC910280F381E02DEC
:1006600019959C0102C020E030E08A819B81280F0F
:10067000391F3B832A83DF91CF9108958F929F92F8
:10068000AF92BF92EF92FF920F931F93CF93DF939E
:10069000CDB7DEB766970FB6F894DEBF0FBECDBFFD
:1006A0007C011E8A8E010A5E1F4F8AE0882E912CE3
:1006B000A12CB12CCB01BA01A50194010E94C21555
:1006C000942F852F605DF80162938F01A901692F36
:1006D000782F411551056105710561F7BF01C7010B
:1006E000A9DF66960FB6F894DEBF0FBECDBFDF91CF
:1006F000CF911F910F91FF90EF90BF90AF909F907F
:100700008F900895FF920F931F93CF93DF936115FE
:10071000710541F461E372E0DF91CF911F910F9178
:10072000FF9088CF8B01EC0162E2CE0123DFF8015C
:1007300061918F01662351F0E2E2F2E0F080FF2048
:10074000A1F39181961751F03296F8CF62E2CE0173
:10075000DF91CF911F910F91FF900CCF6CE5CE01EF
:1007600009DF6F2DE2CF0F931F93CF93DF93EC013F
:1007700088819981009729F02A813B8126173707C4
:1007800088F48B016F5F7F4F0E946A12009761F0BF
:10079000998388831B830A832C813D81232B11F449
:1007A000FC01108281E001C080E0DF91CF911F91B8
:1007B0000F9108951F920F920FB60F9211240BB64E
:1007C0000F922F933F934F935F936F937F938F93EA
:1007D0009F93AF93BF93EF93FF938EE992E0D3DDA6
:1007E000FF91EF91BF91AF919F918F917F916F9109
:1007F0005F914F913F912F910F900BBE0F900FBEC5
:100800000F901F9018951F920F920FB60F92112400
:100810000BB60F922F938F939F93EF93FF93E091DB
:10082000AE02F091AF028081E091B402F091B50286
:1008300082FD12C090818091B7028F5F8F732091EB
:10084000B802821751F0E091B702F0E0E256FD4F96
:10085000958F8093B70201C08081FF91EF919F91A6
:100860008F912F910F900BBE0F900FBE0F901F9086
:100870001895CF93DF93EC01888121D68A838981F3
:100880001ED68B83DF91CF910895CF93DF93EC0138
:1008900062E088816BD662E08981DF91CF9166C684
:1008A0000F931F93CF93DF938C01EB016BE7CE0186
:1008B00061DEF801008111810115110591F0F80147
:1008C00062817381CE011EDF6AE3CE0153DEBE0179
:1008D000C801049611D0F80100811181011511059C
:1008E00039F46DE7CE01DF91CF911F910F9142CE88
:1008F0006CE2CE013FDEE0CF4F925F926F927F922B
:100900009F92AF92BF92CF92DF92EF92FF920F939E
:100910001F93CF93DF938C01EB01FC01A080B1808A
:10092000F8E0AF16B10408F077C0F5018827EE585B
:10093000FF4F8F4F0C941B10F801028113816BE560
:10094000CE0118DEF801028113810115110551F065
:10095000BE01C8010296D0DFF801008111810115A6
:10096000110591F46DE5CE01DF91CF911F910F91AB
:10097000FF90EF90DF90CF90BF90AF909F907F90CF
:100980006F905F904F90F6CD6CE2CE01F3DDDDCF3E
:10099000F801828193810296DF91CF911F910F918F
:1009A000FF90EF90DF90CF90BF90AF909F907F909F
:1009B0006F905F904F9074CFF80162817381CE0188
:1009C000DF91CF911F910F91FF90EF90DF90CF902B
:1009D000BF90AF909F907F906F905F904F9092CE1E
:1009E000F8016281738155C06DE2CE01C3DDF8016B
:1009F00042815381648175810FC1F80182819381A5
:100A0000A481B581892B8A2B8B2B19F46BE372E0BF
:100A100040C066E372E03DC088EF982E9A0CF80162
:100A2000C280D380E480F580A7019601C701B6019A
:100A30000E943911882319F061E472E02AC020E095
:100A400030E0A901C701B6010E949A1487FF07C0D0
:100A50006DE2CE018FDDF7FAF094F7F8F0942601FD
:100A60003701E89477F82FEF3FEF4FE75FE7C301D7
:100A7000B2010E94391181111DC02FEF3FEF4FE7E6
:100A80005FE7C301B2010E949A1418169CF465E452
:100A900072E0CE01DF91CF911F910F91FF90EF9007
:100AA000DF90CF90BF90AF909F907F906F905F90BE
:100AB0004F90C0CD20E030E04AE754E4C701B601D2
:100AC0000E94351100E010E018160CF12FE632E11B
:100AD00043E85AE3C701B6010E949A1487FF37C062
:100AE00016C020E030E040E85FE3C701B6010E9495
:100AF0009A1487FF15C00150110920E030E040E250
:100B000051E4C701B6010E94FF146B017C0120E093
:100B100030E0A901C701B6010E949A148111E1CF0A
:100B200020E030E040E251E4C701B6010E943511F7
:100B300018166CF40F5F1F4F20E030E040E251E4E4
:100B4000C701B6010E949C106B017C01E9CF892D81
:100B5000EEDC20E030E040E05FE30E94FF149B0108
:100B6000AC01C701B6010E9438102B013C010E9464
:100B700009116B017C010E949E149B01AC01C30111
:100B8000B2010E9437102B013C01B701A601CE0132
:100B900075DD992019F06EE2CE01ECDCF8E0AF16BD
:100BA00011F120E030E040E251E4C301B2010E94C3
:100BB000FF142B013C010E940411F62E062E000C9E
:100BC000770B880B990B0E94A0149B01AC01C30109
:100BD000B2010E9437102B013C0160E36F0DCE0182
:100BE000C9DCAA94DBCF17FF0DC06EE472E0CE0122
:100BF00021DD44275527401B510B052E000C660BA9
:100C0000770B0AC001151105C1F065E6CE01B2DC13
:100C1000A801110F660B770BCE01DF91CF911F91C9
:100C20000F91FF90EF90DF90CF90BF90AF909F908B
:100C30007F906F905F904F9021CDDF91CF911F916A
:100C40000F91FF90EF90DF90CF90BF90AF909F906B
:100C50007F906F905F904F9008950F931F93CF9365
:100C6000DF93EC018B01209759F0B8018A819B81B9
:100C70000E945713892B39F00990D881C02DF3CFEA
:100C800080E090E001C0CE01DF91CF911F910F91E4
:100C90000895CF93DF93FC0182819381DEDFFC0115
:100CA000892B09F447C0848195818330910534F400
:100CB00081309105DCF4892B99F12BC085309105A9
:100CC00084F0059731F586819781A085B1859C01D7
:100CD000AD0166277727CB01621B730B840B950B45
:100CE00027C0668177818085918522C0C681D781A2
:100CF0002097B1F0BE0186E392E00E945713892B42
:100D000099F04AE050E060E070E0CE010E94671385
:100D10000FC066817781808591850E94041108C08B
:100D200060E070E0CB0104C061E070E080E090E042
:100D3000CB0102C080E090E0DF91CF910895CF9386
:100D4000DF93AC01EC01AA81BB812C818D819C9148
:100D5000973219F4C22FD82F15C09232D9F3C22F6F
:100D6000D82FFD012BC02C3559F4FD013296129677
:100D70002C91A6E2B2E08C91811111C0222349F19D
:100D80002993DF013C2F6D2FFD01319611962C9197
:100D900011972223F1F02913E6CF31961AC082135E
:100DA00003C011962C91EACF1296E5CF892F8F7D43
:100DB00081548A3150F49993319690813C2F6D2F54
:100DC00080ED890F8A3090F7F6CF83ED890F82305E
:100DD00090F3A32FB62F1D92EA018C819D81FB8396
:100DE000EA83BD83AC83DF91CF910895FC0120811C
:100DF0002D3051F024F42950223030F505C0203236
:100E000019F02F3219F008950196F0CFFC012181DD
:100E10002A3219F02F3279F00895FC013296CF0171
:100E200020813196222311F32A32C9F720812F32F3
:100E3000B1F70296DBCFFC013296CF01219122233C
:100E4000A9F22A30D1F7D2CF08950F931F93CF93F1
:100E5000DF931F92CDB7DEB78C01FC0180819181B9
:100E60006983C4DFFC0120816981261307C00196D4
:100E7000BDDFF8019183808381E001C080E00F90A5
:100E8000DF91CF911F910F910895DB01109749F0E9
:100E9000ED91FC9111970190F081E02DBC01CD0105
:100EA000199480E090E00895CF93DF93EC0168817E
:100EB00079818AE090E0E9DF009729F0FC01118256
:100EC000108215821482EA81FB81309751F02081D3
:100ED00031812115310511F0F901F9CF918380831A
:100EE00002C09B838A83DF91CF910895DF92EF92B6
:100EF000FF920F931F93CF93DF93EC01D62E0A81BD
:100F00001B81E880F980B801F70182819381A5DE19
:100F1000FC01892B39F4C701C7DFFC01892BF1F0F3
:100F200013830283D7FC08C04D2DDD0C550B660BD7
:100F3000770B84E090E00CC08D2D992781950CF4FF
:100F40009095AC01052E000C660B770B85E090E0C8
:100F5000958384834683578360877187CE01DF91B1
:100F6000CF911F910F91FF90EF90DF900895CF9256
:100F7000DF92EF92FF921F93CF93DF93EC01162F36
:100F8000EA80FB80C880D980B701F6018281938115
:100F900064DEFC01892B39F4C60186DFFC01892B54
:100FA00071F0F382E28284E090E095838483812F64
:100FB00090E0A0E0B0E086839783A087B187CE0160
:100FC000DF91CF911F91FF90EF90DF90CF90089528
:100FD000CF92DF92EF92FF920F931F93CF93DF9305
:100FE000EC016B010A811B81E880F980B801F701EF
:100FF0008281938132DEFC01892B39F4C70154DFF1
:10100000FC01892BD9F013830283D7FC07C0A6010A
:10101000DD0C660B770B84E090E00AC0442755276F
:101020004C195D09052E000C660B770B85E090E0EE
:10103000958384834683578360877187CE01DF91D0
:10104000CF911F910F91FF90EF90DF90CF90089577
:10105000CF93DF93EC01BC0184E090E016DFFC014C
:10106000009729F0D183C0831382128211C080912E
:10107000960281110BC0109293021092920210926C
:1010800095021092940281E08093960282E992E0A8
:10109000DF91CF9108959F92AF92BF92CF92DF924E
:1010A000EF92FF920F931F93CF93DF9300D000D066
:1010B000CDB7DEB7D82EC92EE82EF92EF7018191D3
:1010C00091917F01C5DF8C016BE7C701BEDE8823EC
:1010D00009F43DC06DE7C701B8DE811148C086E064
:1010E000982E8D2D9C2D2BDE5C01892B81F16AE3DE
:1010F000C701ABDE882359F11A821982BE016F5FE6
:101100007F4F8D2D9C2D9ED0882309F1B501F801CC
:1011100082819381A2DD009739F4C801C5DE009772
:10112000B1F0FC01B382A282FE013196DC0114967B
:10113000892D01900D928A95E1F76DE7C70185DE53
:10114000811115C06CE2C70180DE8111CACF809188
:10115000960281110EC01092930210929202109288
:1011600095021092940281E08093960202C0C80119
:1011700002C082E992E026960FB6F894DEBF0FBE59
:10118000CDBFDF91CF911F910F91FF90EF90DF9036
:10119000CF90BF90AF909F90089590E0FC01319761
:1011A000E231F10508F04DC08827E457FF4F8F4F1B
:1011B00042C7809180008F7703C0809180008F7D2F
:1011C00080938000089580918000877FF9CF84B557
:1011D0008F7702C084B58F7D84BD08958091B00063
:1011E0008F7703C08091B0008F7D8093B000089509
:1011F000809190008F7707C0809190008F7D03C011
:1012000080919000877F8093900008958091A00046
:101210008F7707C08091A0008F7D03C08091A000D0
:10122000877F8093A0000895809120018F7707C069
:10123000809120018F7D03C080912001877F809362
:10124000200108959F92AF92BF92CF92DF92EF92CA
:10125000FF920F931F93CF93DF9300D000D0CDB7B1
:10126000DEB7FC019681992309F4CFC06B017F01A1
:101270009150968382819381B9DDF70193838283B4
:10128000FC0180818B3521F08B3709F493C09CC021
:10129000F70100811181B80184E090E0F6DD00974C
:1012A00039F0FC0111830083138212828C0111C07A
:1012B00080916E0381110BC010926B0310926A0330
:1012C00010926D0310926C0381E080936E030AE626
:1012D00013E05701F2E0AF0EB11C6BE5C501B5DDBF
:1012E000882309F447C06DE5C501AFDD811153C006
:1012F00086E0982E1A821982BE016F5F7F4FC70168
:10130000A1DF8823B9F1F8016081718188E090E064
:10131000BCDDDC01892B39F011961C921E921396CC
:101320001C921E921297F8012281338121153105FA
:1013300051F0F90180819181009711F09C01F9CF62
:10134000B183A08303C0F801B383A283109791F007
:10135000FE0131961296892D01900D928A95E1F742
:101360006DE5C50172DD811116C06CE2C5016DDD50
:101370008111C0CF80916E0381110BC010926B035D
:1013800010926A0310926D0310926C0381E08093B7
:101390006E030AE613E0F80180819181892B11F434
:1013A00010E02EC086E090E0F601918380831383E5
:1013B000028325C0C7016FDEFC0120813181232B10
:1013C00079F327E030E016C011E0873219F082325D
:1013D00009F010E0C701B3DC009711F3112341F0CD
:1013E00022E030E0F601318320839383828308C0BA
:1013F00021E030E0F601318320839383828311E082
:10140000F70186818F5F868301C010E0812F2696C9
:101410000FB6F894DEBF0FBECDBFDF91CF911F9105
:101420000F91FF90EF90DF90CF90BF90AF909F9083
:1014300008952FB7F8948091660390916703A09167
:101440006803B09169032FBF8093A6029093A7020F
:10145000A093A802B093A902E0919E02F0919F028E
:101460000680F781E02D8EE992E0199597FF26C05E
:101470002FB7F8948091660390916703A091680359
:10148000B09169032FBF4091A6025091A7026091CD
:10149000A8027091A902841B950BA60BB70B409173
:1014A000A2025091A3026091A4027091A502841738
:1014B0009507A607B70780F28FEF9FEF0895CF93A8
:1014C000DF93282F30E0F901EA5EFD4F8491F901A6
:1014D000E053FE4FD491F901E657FE4FC491CC235F
:1014E00089F081115ADEEC2FF0E0EE0FFF1FE0597A
:1014F000FE4FA591B491EC91ED2381E090E021F4B1
:1015000080E002C080E090E0DF91CF9108951F93CA
:10151000CF93DF93282F30E0F901EA5EFD4F8491ED
:10152000F901E053FE4FD491F901E657FE4FC49103
:10153000CC23C1F0162F811130DEEC2FF0E0EE0F3E
:10154000FF1FEA5AFE4FA591B4918FB7F89411117D
:1015500005C09C91ED2FE095E92302C0EC91ED2BA5
:10156000EC938FBFDF91CF911F910895CF93DF93BD
:1015700090E0FC01E053FE4F2491FC01E657FE4F42
:101580008491882361F190E0880F991FFC01E45C4D
:10159000FE4FC591D491FC01EA5AFE4FA591B4913A
:1015A000611109C09FB7F8948881209582238883B0
:1015B000EC912E230BC0623061F49FB7F894388110
:1015C000822F809583238883EC912E2B2C939FBFB1
:1015D00006C08FB7F894E8812E2B28838FBFDF9148
:1015E000CF9108953FB7F89480916203909163037F
:1015F000A0916403B091650326B5A89B05C02F3F59
:1016000019F00196A11DB11D3FBFBA2FA92F982F28
:101610008827820F911DA11DB11DBC01CD0142E0A3
:10162000660F771F881F991F4A95D1F708951F925B
:101630000F920FB60F9211242F933F938F939F9386
:10164000AF93BF938091660390916703A091680365
:10165000B09169033091610323E0230F2D3720F40B
:101660000196A11DB11D05C026E8230F0296A11DFC
:10167000B11D209361038093660390936703A09349
:101680006803B09369038091620390916303A09112
:101690006403B09165030196A11DB11D809362039F
:1016A00090936303A0936403B0936503BF91AF91DC
:1016B0009F918F913F912F910F900FBE0F901F9090
:1016C0001895CF93DF93CDB7DEB7C557D1090FB6C5
:1016D000F894DEBF0FBECDBF789484B5826084BD20
:1016E00084B5816084BD85B5826085BD85B5816026
:1016F00085BD80916E00816080936E0010928100A4
:10170000809181008260809381008091810081605E
:10171000809381008091800081608093800080911F
:10172000B10084608093B1008091B00081608093AB
:10173000B00080919100826080939100809191002F
:1017400081608093910080919000816080939000EF
:101750008091A10082608093A1008091A1008160AE
:101760008093A1008091A00081608093A00080916F
:101770002101826080932101809121018160809309
:1017800021018091200181608093200180917A0065
:10179000846080937A0080917A00826080937A00DE
:1017A00080917A00816080937A0080917A008068CD
:1017B00080937A001092C100E091AE02F091AF02E6
:1017C00082E08083E091AA02F091AB021082E09166
:1017D000AC02F091AD0280E180831092B602E091FC
:1017E000B202F091B30286E08083E091B002F09102
:1017F000B102808180618083E091B002F091B102FA
:10180000808188608083E091B002F091B102808194
:1018100080688083E091B002F091B10280818F7D79
:10182000808361E080915A03A1DE61E080915C03D6
:101830009DDE60E080915F0399DE61E080915B0353
:1018400095DE61E080915D0391DE60E08091600350
:101850008DDE61E08091590389DE61E0809159035A
:1018600056DE60E080915E0381DE83E593E00DD873
:1018700089E493E00AD88FE393E007D861E08DE034
:1018800075DE90E5692E712C20E1A22E22E0B22EA9
:10189000812C992493948EE992E00E94AE0118164F
:1018A00019060CF0C9C0E2961FAE1EAEE297E49690
:1018B0001FAE1EAEE497E6961FAE1EAEE69760E042
:1018C00070E0CE0180599F4F0E94B303E2962EAD87
:1018D0003FADE297811112C02115310511F0C90108
:1018E00061D5E2961FAE1EAEE297E6961FAE1EAE23
:1018F000E697E4961FAE1EAEE4972EC0E6961FAEA6
:101900001EAEE69760E372E0C901DAD625C08A30E0
:10191000910529F189831A82E6960EAD1FADE697EF
:101920000F5F1F4FB801CE0180599F4F0E94B30334
:10193000882391F0E2962EAD3FADE297E6968EAD0C
:101940009FADE697BE016F5F7F4F820F931FB8D6A2
:10195000E6961FAF0EAFE6976CDD97FFD8CF8AE013
:1019600092E09A838983A9961FAE1EAEA997E2964C
:101970006EAD7FADE29761157105B9F0FB01019085
:101980000020E9F7AF01461B570B4536510558F4C7
:10199000A9965FAF4EAFA997CE0103967FD6BE0141
:1019A0006D5F7F4F02C060E070E0E1E0F0E0EC0FBF
:1019B000FD1FAB96FFAFEEAFAB976115710511F050
:1019C000CB0102C080E392E0AD969FAF8EAFAD97A2
:1019D000AF967FAF6EAFAF978AE0E0968FAFE0979C
:1019E000CE0187599F4F57DB8C0161E572E051D9D9
:1019F000909358038093570366E572E0C80149D974
:101A000090934E0380934D036BE572E0C80141D97A
:101A1000909344038093430361E080915703909136
:101A20005803181619060CF060E08DE070DDE296A0
:101A30008EAD9FADE297B6D483E593E00E94390462
:101A400089E493E00E9439048FE393E00E94390413
:101A5000E0914F03F09150038481958121E01816A5
:101A6000190624F0009709F420E0219520935103F2
:101A7000109252032F3F21F0213039F4338101C0FD
:101A80003281332321F02093520380E090E095834C
:101A9000848397FF06C0919581959109DD24D394A5
:101AA00001C0D12C9C018139914014F020E931E032
:101AB00043E3429FC001439F900D1124B301A8D27C
:101AC0008B01C0905C0361E08C2D50DD0115110588
:101AD00009F4B0C00F3F110509F4AEC0EC2DF0E0E1
:101AE000EA5EFD4FE4914E2F50E0FA013197E2316A
:101AF000F10508F09CC08827E658FF4F8F4F9BC226
:101B000084B5806884BD07BD9AC084B5806284BDF9
:101B100008BD95C0809180008068809380001093FC
:101B20008900009388008BC0809180008062809340
:101B3000800010938B0000938A0081C08091800008
:101B400088608093800010938D0000938C0077C094
:101B50008091B00080688093B0000093B3006FC0A4
:101B60008091B00080628093B0000093B40067C0A1
:101B7000809190008068809390001093990000936A
:101B800098005DC0809190008062809390001093D7
:101B90009B0000939A0053C08091900088608093CE
:101BA000900010939D0000939C0049C08091A0007C
:101BB00080688093A0008091A0008F7B8093A0001C
:101BC0001093A9000093A8003AC08091A000806201
:101BD0008093A0001093AB000093AA0030C08091C6
:101BE000A00088608093A0001093AD000093AC002B
:101BF00026C08091200180688093200110932901E4
:101C0000009328011CC080912001806280932001F4
:101C100010932B0100932A0112C08091200188604B
:101C20008093200110932D0100932C0108C00038EF
:101C3000110514F460E001C061E08C2D68DCDD204A
:101C400011F061E001C060E080915A0360DCBA826B
:101C5000A9821D821C829F828E82CE010196F8D9B4
:101C60008C016091570370915803AB969FAF8EAF74
:101C7000AB9781E592E0AD969FAF8EAFAD97CE0169
:101C800087599F4FA5D960915503AB961FAF0EAFF3
:101C9000AB9780E692E0AD969FAF8EAFAD97CE0149
:101CA00087599F4F64D960915603AB961FAF0EAF13
:101CB000AB9785E692E0AD969FAF8EAFAD97CE0124
:101CC00087599F4F54D980915F03863308F086531C
:101CD00090917B00282F2870977F922B90937B0008
:101CE0008770806480937C0080917A008064809308
:101CF0007A0080917A0086FDFCCF80917800209157
:101D0000790090E0922B29E0289F6001299FD00C58
:101D100011246AE672E0F801828193810E942D0607
:101D2000009749F4C801C0D8009789F02AE632E04C
:101D3000FC013383228324E030E0FC0135832483DB
:101D4000A60160E070E046835783608771876091E9
:101D50005203662371F0AB961FAF0EAFAB978EE6C2
:101D600092E0AD969FAF8EAFAD97CE0187599F4F52
:101D7000BDD860914D0370914E03AB961FAF0EAF6F
:101D8000AB9786E592E0AD969FAF8EAFAD97CE0153
:101D900087599F4F1DD960914B03AB961FAF0EAF74
:101DA000AB9781E792E0AD969FAF8EAFAD97CE0136
:101DB00087599F4FDCD860914C03AB961FAF0EAF95
:101DC000AB9786E792E0AD969FAF8EAFAD97CE0111
:101DD00087599F4FCCD860914803662371F0AB962A
:101DE0001FAF0EAFAB978BE792E0AD969FAF8EAF74
:101DF000AD97CE0187599F4F79D860914303709179
:101E00004403AB961FAF0EAFAB978BE592E0AD9658
:101E10009FAF8EAFAD97CE0187599F4FD9D86091B4
:101E20004103AB961FAF0EAFAB9781E892E0AD9642
:101E30009FAF8EAFAD97CE0187599F4F98D86091D5
:101E40004203AB961FAF0EAFAB9786E892E0AD961C
:101E50009FAF8EAFAD97CE0187599F4F88D86091C5
:101E60003E03662371F0AB961FAF0EAFAB978BE8C6
:101E700092E0AD969FAF8EAFAD97CE0187599F4F41
:101E800035D88EE992E0AB969FAF8EAFAB97AD960B
:101E90001FAE1EAEAD97BE0167597F4FC8010296B7
:101EA0000E94500442E050E06EE872E08EE992E059
:101EB0000E946101BA82A9828C819D81009731F0D4
:101EC000FC01008111816ED2C801F8CF8BDB6B0160
:101ED0007C0182E3282E312C412C512C83DBDC0148
:101EE000CB018C199D09AE09BF09883E9340A1051D
:101EF000B10558F0F1E02F1A31084108510828EED9
:101F0000C20E23E0D21EE11CF11C21143104410455
:101F1000510421F70E944B02BECCEEE9F2E013829D
:101F2000128288EE93E0A0E0B0E084839583A683DC
:101F3000B78386E192E09183808385EC90E095877A
:101F4000848784EC90E09787868780EC90E0918B83
:101F5000808B81EC90E0938B828B82EC90E0958B70
:101F6000848B86EC90E0978B868B118E128E138E6D
:101F7000148EE9E5F3E082E0838383E084838EE1DD
:101F800080838AE181838CE182838FE1858386E38C
:101F9000868387E38783E3E5F3E08CE280838AE24C
:101FA00081831282138215821482AFE4B3E011960A
:101FB000FC93EE9312961C92129713961C92E9E4EE
:101FC000F3E080E380838EE28183128213821582A4
:101FD0001482A5E4B3E01196FC93EE9312961C9242
:101FE000129713961C92EFE3F3E084E3808382E37D
:101FF00081831282138215821482ABE3B3E01196BF
:10200000FC93EE9312961C92129713961C920895CD
:1020100097FB072E16F4009406D077FD08D013D056
:1020200007FC05D03EF4909581959F4F08957095DB
:1020300061957F4F0895EE0FFF1F881F8BBF07909C
:10204000F691E02D1994AA1BBB1B51E107C0AA1FF2
:10205000BB1FA617B70710F0A61BB70B881F991F49
:102060005A95A9F780959095BC01CD0108955058D7
:10207000BB27AA270ED03DC52ED530F033D520F092
:1020800031F49F3F11F41EF423C50EF4E095E7FBF5
:1020900019C5E92F3FD580F3BA1762077307840784
:1020A000950718F071F49EF557C50EF4E0950B2EC8
:1020B000BA2FA02D0B01B90190010C01CA01A0019A
:1020C0001124FF27591B99F0593F50F4503E68F1F5
:1020D0001A16F040A22F232F342F4427585FF3CF36
:1020E000469537952795A795F0405395C9F77EF407
:1020F0001F16BA0B620B730B840BBAF09150A1F050
:10210000FF0FBB1F661F771F881FC2F70EC0BA0FD5
:10211000621F731F841F48F4879577956795B7955D
:10212000F7959E3F08F0B3CF9395880F08F0992755
:10213000EE0F9795879508950CD0DBC4D3D440F06B
:10214000CAD430F021F45F3F19F0BCC4511105C569
:10215000BFC4E0D498F39923C9F35523B1F3951B79
:10216000550BBB27AA2762177307840738F09F5FB8
:102170005F4F220F331F441FAA1FA9F333D00E2E27
:102180003AF0E0E830D091505040E695001CCAF794
:1021900029D0FE2F27D0660F771F881FBB1F261759
:1021A00037074807AB07B0E809F0BB0B802DBF012C
:1021B000FF2793585F4F2AF09E3F510568F082C475
:1021C000CCC45F3FECF3983EDCF38695779567953A
:1021D000B795F7959F5FC9F7880F911D96958795DD
:1021E00097F90895E1E0660F771F881FBB1F6217FC
:1021F00073078407BA0720F0621B730B840BBA0BBA
:10220000EE1F88F7E095089504D06894B111A5C435
:10221000089588D488F09F5790F0B92F9927B75127
:10222000A0F0D1F0660F771F881F991F1AF0BA959A
:10223000C9F712C0B13081F08FD4B1E008958CC4D9
:10224000672F782F8827B85F39F0B93FCCF3869590
:1022500077956795B395D9F73EF4909580957095ED
:1022600061957F4F8F4F9F4F0895A5D308F48FEF4F
:102270000895A1D3880B990B0895CF93DF938230F3
:10228000910510F482E090E0E0917803F0917903F9
:1022900020E030E0C0E0D0E0309711F14081518182
:1022A00048175907C0F04817590761F48281938194
:1022B000209719F09B838A832BC090937903809396
:1022C000780326C02115310519F04217530718F479
:1022D0009A01BE01DF01EF010280F381E02DDCCF26
:1022E0002115310509F1281B390B2430310590F4F3
:1022F00012968D919C9113976115710521F0FB0148
:102300009383828304C09093790380937803FD01C3
:10231000329644C0FD01E20FF31F81939193225046
:1023200031092D933C933AC0209176033091770385
:10233000232B41F420910202309103023093770362
:10234000209376032091000230910102211531057E
:1023500041F42DB73EB74091040250910502241B71
:10236000350BE0917603F0917703E217F307A0F4C1
:102370002E1B3F0B2817390778F0AC014E5F5F4FDB
:102380002417350748F04E0F5F1F50937703409393
:1023900076038193919302C0E0E0F0E0CF01DF91FA
:1023A000CF9108950F931F93CF93DF93009709F474
:1023B0008CC0FC0132971382128200917803109135
:1023C00079030115110581F420813181820F931F5A
:1023D00020917603309177032817390779F5F09328
:1023E0007703E093760371C0D80140E050E0AE1768
:1023F000BF0750F412962D913C911397AD01211512
:10240000310509F1D901F3CF9D01DA01338322832C
:1024100060817181860F971F8217930769F4EC0121
:1024200028813981260F371F2E5F3F4F318320834C
:102430008A819B8193838283452B29F4F0937903CE
:10244000E093780342C01396FC93EE931297ED014C
:10245000499159919E01240F351FE217F30771F43A
:1024600080819181840F951F029611969C938E9383
:102470008281938113969C938E931297E0E0F0E013
:10248000D80112968D919C911397009719F0F8013D
:102490008C01F6CF8D919C9198012E5F3F4F820F5A
:1024A000931F20917603309177032817390769F439
:1024B000309729F4109279031092780302C01382A6
:1024C00012821093770300937603DF91CF911F91CF
:1024D0000F9108956F927F928F929F92AF92BF92C9
:1024E000CF92DF92EF92FF920F931F93CF93DF93E0
:1024F000EC01009781F4CB01DF91CF911F910F91F7
:10250000FF90EF90DF90CF90BF90AF909F908F9013
:102510007F906F90B2CEFC01E60FF71F9C01225016
:102520003109E217F30708F4A8C0D9010D911C91F5
:10253000119706171707A8F00530110508F49BC07E
:10254000C80104978617970708F495C0025011092F
:10255000061B170B019311936D937C93CF0122DF20
:102560008AC05B01A01AB10A4C01800E911EA09195
:102570007803B091790340E050E0E12CF12C109702
:1025800009F44AC0A815B905D1F56D907C90119752
:10259000630182E0C80ED11CCA14DB0480F1A301E0
:1025A0004A195B096A0182E0C80ED11C1296BC90E0
:1025B00012971396AC91B5E0CB16D10440F0B282DD
:1025C000A38351834083D9016D937C930AC00E5F2E
:1025D0001F4FC301800F911FF90191838083EB2D61
:1025E000FA2FE114F10431F0D7011396FC93EE9326
:1025F000129741C0F0937903E09378033CC08D912A
:102600009C9111974817590708F4AC017D01129667
:102610000D90BC91A02DB3CF80917603909177035C
:1026200088159905E1F446175707C8F48091000210
:1026300090910102009741F48DB79EB7409104023A
:1026400050910502841B950BE817F907B0F4F0933D
:102650007703E0937603F901718360830CC0CB01AB
:102660000CDE7C01009749F0A801BE0117D0CE0115
:1026700099DEC70104C0CE0102C080E090E0DF9186
:10268000CF911F910F91FF90EF90DF90CF90BF906F
:10269000AF909F908F907F906F900895FB01DC0129
:1026A00002C001900D9241505040D8F70895FB01AF
:1026B000DC018D91019080190110D9F3990B0895D7
:1026C000FB01DC0101900D920020E1F708952F92AB
:1026D0003F924F925F926F927F928F929F92AF92B2
:1026E000BF92CF92DF92EF92FF920F931F93CF93FF
:1026F000DF935C016B017A016115710519F0FB0133
:1027000091838083E114F10429F0C7010297839734
:1027100008F0EEC0E5012196F5011081812F90E0CF
:10272000FED0892B11F05E01F5CF1D3229F42196E0
:10273000F501118101E007C01B3221F4E501229669
:10274000F501118100E0E114F10459F1F0E1EF1617
:10275000F10461F41033E1F488818F7D883569F5E7
:1027600019812296026070E1E72EF12C88E0E816CC
:10277000F10439F12CF4F2E0EF16F104C1F12AC0B2
:102780008AE0E816F10479F0E0E1EE16F10411F5C3
:1027900050E1E52EF12C812C912CA12C68E0B62E75
:1027A0002BC01033C9F23AE0E32EF12C4CEC842E0E
:1027B000982CA82C4CE0B42E1FC010E3E114F104B7
:1027C000A9F698E0E92EF12C812C912CA12C20E186
:1027D000B22E12C060E070E080E090E897010F2C0C
:1027E000000C440B550BCED149015A0105C0812C78
:1027F000912CA12C80E4B82E60E020E030E0A9010B
:1028000027010F2C000C660877081E01E0EDE10F90
:10281000EA3060F08FEB810F8A3110F4E9EC05C0EB
:102820008FE9810F8A3120F5E9EAE10F8E2F90E0E0
:102830008E159F05ECF467FD17C082169306A4065B
:10284000B50688F0C301B2018ED19B01AC012E0FF9
:10285000311D411D511D213031054105F0E85F0753
:1028600010F461E001C06FEF2196F1011081CDCF2E
:10287000802F8170C114D10471F0662329F0219753
:10288000F601D183C08307C001FF19C02297F6016A
:10289000D183C08314C067FF12C0811105C02FEF20
:1028A0003FEF4FEF5FE704C020E030E040E050E84A
:1028B00082E290E090937B0380937A0316C0882392
:1028C00041F050954095309521953F4F4F4F5F4FC8
:1028D0000CC057FF0AC082E290E090937B03809384
:1028E0007A032FEF3FEF4FEF5FE7B901CA0104C052
:1028F00060E070E080E090E0DF91CF911F910F9158
:10290000FF90EF90DF90CF90BF90AF909F908F900F
:102910007F906F905F904F903F902F90089591110E
:1029200006C0803219F089508550D0F70895992754
:102930008827089540D008F481E00895E89409C0FC
:1029400097FB3EF490958095709561957F4F8F4FE2
:102950009F4F9923A9F0F92F96E9BB279395F695F8
:10296000879577956795B795F111F8CFFAF4BB0F76
:1029700011F460FF1BC06F5F7F4F8F4F9F4F16C0DA
:10298000882311F096E911C0772321F09EE8872F64
:10299000762F05C0662371F096E8862F70E060E020
:1029A0002AF09A95660F771F881FDAF7880F969599
:1029B000879597F90895990F0008550FAA0BE0E83D
:1029C000FEEF16161706E807F907C0F012161306F1
:1029D000E407F50798F0621B730B840B950B39F431
:1029E0000A2661F0232B242B252B21F408950A2697
:1029F00009F4A140A6958FEF811D811D08950BD08C
:102A000078C069D028F06ED018F0952309F05AC02C
:102A10005FC01124A2C07ED0A0F3959FD1F3950F83
:102A200050E0551F629FF001729FBB27F00DB11D52
:102A3000639FAA27F00DB11DAA1F649F6627B00DE2
:102A4000A11D661F829F2227B00DA11D621F739FCB
:102A5000B00DA11D621F839FA00D611D221F749FD9
:102A60003327A00D611D231F849F600D211D822F20
:102A7000762F6A2F11249F5750408AF0E1F0882367
:102A80004AF0EE0FFF1FBB1F661F771F881F915074
:102A90005040A9F79E3F510570F014C05EC05F3FE3
:102AA000ECF3983EDCF3869577956795B795F795A7
:102AB000E7959F5FC1F7FE2B880F911D969587952F
:102AC00097F9089597F99F6780E870E060E00895AE
:102AD0009FEF80EC089500240A9416161706180636
:102AE0000906089500240A94121613061406050612
:102AF0000895092E0394000C11F4882352F0BB0FA3
:102B000040F4BF2B11F460FF04C06F5F7F4F8F4F05
:102B10009F4F089557FD9058440F551F59F05F3F40
:102B200071F04795880F97FB991F61F09F3F79F0EF
:102B300087950895121613061406551FF2CF469571
:102B4000F1DF08C0161617061806991FF1CF8695F3
:102B50007105610508940895E894BB2766277727D7
:102B6000CB0197F90895DB018F939F932DD0BF91EF
:102B7000AF91A29F800D911DA39F900DB29F900DCC
:102B800011240895A1E21A2EAA1BBB1BFD010DC042
:102B9000AA1FBB1FEE1FFF1FA217B307E407F5070D
:102BA00020F0A21BB30BE40BF50B661F771F881FE9
:102BB000991F1A9469F760957095809590959B017F
:102BC000AC01BD01CF01089509D0A59F900DB49F20
:102BD000900DA49F800D911D11240895A29FB00116
:102BE000B39FC001A39F700D811D1124911DB29F41
:0E2BF000700D811D1124911D0895F894FFCFE2
:102BFE0000007C0380000000000083020000000043
:102C0E00CF0200000000E4016101AE018C01A001C1
:102C1E002A0222225C5C6208660C6E0A720D74092E
:102C2E00006E756C6C00747275650066616C736510
:102C3E00004E614E00496E66696E69747900652DAD
:102C4E00006D6F7431006D6F7432006D6F743300F0
:102C5E006D316C73006D31727300637531006831C4
:102C6E00006D326C73006D3272730068616C743279
:102C7E00006D336C73006D337273006833000D0A90
:022C8E00000044
:00000001FF
